:100000000C9434000C94DA000C94DA000C94DA00AE
:100010000C94DA000C94DA000C94DA000C94DA00F8
:100020000C94DA000C94DA000C94DA000C94DA00E8
:100030000C94DA000C94DA000C94DA000C94DA00D8
:100040000C94DA000C94DA000C94DA000C94DA00C8
:100050000C94DA000C94DA000C94DA000C94DA00B8
:100060000C94DA000C94DA0011241FBECFEFD8E014
:10007000DEBFCDBFE8E6F0E040E017C0B591A59146
:1000800035912591059107FD0CC095918591EF0162
:10009000F92FE82F05900D92A217B307D9F7FE01AB
:1000A00004C01D92A217B307E1F7E836F40731F751
:0C00B0000E9485000C94BE00F894FFCF65
:1000BC00539AE0EBF0E01082A1EBB0E01C928DE7DC
:1000CC008093B30088E78093B40080818063808341
:1000DC008081836080838C9188608C9314BC84B500
:1000EC00826084BD15BC85B5856085BD85B580688D
:0E00FC0085BD89E087BD82E080936E00089587
:10010A000E94A4000E94B2000E945E000E94C900E0
:10011A00CAE7D0E009E710E0888186FFFDCFF80141
:10012A0080810E94D200FFEF23ED80E3F15020404E
:0E013A008040E1F700C00000F8018081EDCFA9
:10014800789481E680937C00EAE7F0E086EA808391
:0C01580010927B008081806480830895F9
:100164001092C50087E68093C40086E08093C200A5
:0801740088E18093C1000895A9
:10017C00EC010E94DF000E94DE00CE010E94E00034
:06018C00CE010E94DC0020
:100192008FEE8093B300E1EBF0E080818560808395
:0201A2000895BE
:1001A400E0ECF0E0908195FFFDCF8093C6000895C8
:0401B4000C940000A7
:0401B8000E945C0045
:0201BC000895A4
:0201BE000895A2
:0201C0000895A0
:00000001FF
