:100000000C943A000C9440020C9440020C94400270
:100010000C9440020C9440020C9440020C944D014C
:100020000C9440020C9440020C9440020C94400248
:100030000C9440020C94DB010C9440020C9440029E
:100040000C9440020C9440020C9440020C94400228
:100050000C9440020C9440020C9440020C94400218
:100060000C9440020C9440020100010A00048E012D
:100070000A010E8011241FBECFEFD8E0DEBFCDBF36
:10008000E8E6F0E040E017C0B591A59135912591E3
:10009000059107FD0CC095918591EF01F92FE82F8F
:1000A00005900D92A217B307D9F7FE0104C01D9267
:1000B000A217B307E1F7E437F40731F70E942F02E4
:0800C0000C940902F894FFCF33
:1000C80010C00E941B0258F00E94140240F029F44C
:1000D8005F3F29F00C94290251110C9423020C94CF
:1000E8003D020E94A00168F39923B1F3552391F3CF
:1000F800951B550BBB27AA2762177307840738F08F
:100108009F5F5F4F220F331F441FAA1FA9F335D0EB
:100118000E2E3AF0E0E832D091505040E695001C9F
:10012800CAF72BD0FE2F29D0660F771F881FBB1F59
:10013800261737074807AB07B0E809F0BB0B802D37
:10014800BF01FF2793585F4F3AF09E3F510578F063
:100158000C9429020C9423025F3FE4F3983ED4F3F5
:10016800869577956795B795F7959F5FC9F7880F37
:10017800911D9695879597F90895E1E0660F771F89
:10018800881FBB1F621773078407BA0720F0621B1A
:0E019800730B840BBA0BEE1F88F7E0950895E9
:1001A6002C9A85E38A95F1F700002C981092850029
:1001B6001092840081E48093810080E286BB81E016
:1001C60086BBB59BFECF109285001092840081E01D
:1001D6008093810090E296BB86BB10920B01109231
:1001E6000A01B59BFECF609186007091870080E082
:1001F60090E00E94120129E23CE349E654E40E94A1
:10020600390220E030E040E251E40E9434028823C3
:0A02160014F4429A089542980895E6
:10022000E89409C097FB3EF4909580957095619590
:100230007F4F8F4F9F4F9923A9F0F92F96E9BB2746
:100240009395F695879577956795B795F111F8CFC2
:10025000FAF4BB0F11F460FF1BC06F5F7F4F8F4F2D
:100260009F4F16C0882311F096E911C0772321F023
:100270009EE8872F762F05C0662371F096E8862FBB
:1002800070E060E02AF09A95660F771F881FDAF712
:0A029000880F9695879597F9089559
:10029A001F920F920FB60F9211242F933F934F93F1
:1002AA005F936F937F938F939F93AF93BF93EF93D4
:1002BA00FF9380910C01853120F00E94C2011092B7
:1002CA000C0180910C018F5F80930C01FF91EF91DB
:1002DA00BF91AF919F918F917F916F915F914F9154
:0E02EA003F912F910F900FBE0F901F9018950F
:1002F800990F0008550FAA0BE0E8FEEF161617062F
:10030800E807F907C0F012161306E407F50798F096
:10031800621B730B840B950B39F40A2661F0232BAF
:10032800242B252B21F408950A2609F4A140A6952B
:080338008FEF811D811D089566
:1003400057FD9058440F551F59F05F3F71F0479586
:10035000880F97FB991F61F09F3F79F0879508956B
:10036000121613061406551FF2CF4695F1DF08C08A
:10037000161617061806991FF1CF869571056105A7
:040380000894089540
:1003840085B58B7F85BDE0910D01F0E0E050FF4F16
:10039400808187BD85B5846085BD80910D018F5FA7
:1003A40080930D0180910D018A3010F010920D019F
:0203B4000895AA
:1003B6008F938FB78F939F9380910A0190910B0132
:1003C600019690930B0180930A019F918F918FBFA5
:0403D6008F91189556
:1003DA00092E0394000C11F4882352F0BB0F40F449
:1003EA00BF2B11F460FF04C06F5F7F4F8F4F9F4F89
:0203FA00089564
:1003FC00249A2098289A3A9A789481E080936F00F6
:06040C001092800008952B
:10041200EC010E9445020E944402CE010E94460263
:06042200CE010E9442021F
:0E04280000240A9416161706180609060895F1
:0E04360000240A9412161306140605060895F3
:0E044400E894BB2766277727CB0197F9089528
:0C04520097F99F6780E870E060E0089573
:0A045E000E94FE010E94D300FDCFB2
:0A0468000E947C0108F481E0089571
:080472000E9464000C94ED01EE
:06047A009FEF80EC0895E5
:040480000C940000D8
:040484000E94620070
:020488000895D5
:02048A000895D3
:02048C000895D1
:0A048E005F005F005F78500000007F
:00000001FF
