:100000000C943A000C946D010C946D010C946D01EC
:100010000C946D010C946D010C946D010C94DF0037
:100020000C946D010C946D010C946D010C945B01AA
:100030000C9464000C9424010C946D010C946D01DB
:100040000C946D010C946D010C946D010C946D0178
:100050000C946D010C946D010C946D010C946D0168
:100060000C946D010C946D010100011E0002E80169
:100070001E01278011241FBECFEFD8E0DEBFCDBF09
:10008000E8E6F0E040E017C0B591A59135912591E3
:10009000059107FD0CC095918591EF01F92FE82F8F
:1000A00005900D92A217B307D9F7FE0104C01D9267
:1000B000A217B307E1F7E437F40731F70E940E0106
:0800C0000C945001F894FFCFED
:1000C8001F921FB61F9211248F93EF93FF93809175
:1000D8002001833088F08091210181110DC0429860
:1000E8001092220110922001E1E8F0E080818B7FDC
:1000F800808380818E7F808380912001863098F074
:1001080080912101813079F410922201109221010D
:10011800109220014298E1E8F0E080818B7F808393
:1001280080818E7F8083809120018F5F8093200162
:0E013800FF91EF918F911F901FBE1F901895A1
:1001460085B58B7F85BD209123018091250190E0A7
:10015600FC01EE0FFF1F880F991F880F991F880F4C
:10016600991FE80FF91FE050FF4FE20FF11D808144
:1001760087BD8FE193E00197F1F700C0000085B5D8
:10018600846085BD809123018F5F809323018091D8
:1001960023018A3080F085B58B7F85BDE1EBF0E0E9
:1001A60080818B7F808380818D7F808380818E7F1D
:0801B6008083109223010895DB
:1001BE001F920F920FB60F9211242F933F934F93CE
:1001CE005F936F937F938F939F93AF93BF93EF93B1
:1001DE00FF9380912401853120F00E94A30010929C
:1001EE002401809124018F5F80932401FF91EF9170
:1001FE00BF91AF919F918F917F916F915F914F9131
:0E020E003F912F910F900FBE0F901F901895EB
:10021C000E9436010E944401CAE7D0E009E710E0D1
:10022C00888180648883888186FFFDCF8AEA0E945A
:0C023C006501F80180810E946501F2CF8D
:100248008F938FB78F939F9380911E0190911F0179
:10025800019690931F0180931E019F918F918FBFEC
:040268008F911895C5
:10026C00789481E680937C00EAE7F0E086EA80836C
:0C027C0010927B008081806480830895D4
:100288001092C50087E68093C40086E08093C20080
:0802980088E18093C100089584
:1002A000EC010E9472010E947101CE010E94730153
:0602B000CE010E946F0167
:1002B6001F921FB61F921124109226011F901FBE77
:0402C6001F901895D8
:1002CA00E0ECF0E0908195FFFDCF8093C6000895A1
:0402DA000C94000080
:0402DE000E94620018
:0202E20008957D
:0202E40008957B
:0202E600089579
:1002E8005F005F005F785000000050785F005F009B
:0E02F8005F000000505047503C3F00000000E7
:00000001FF
