:100000000C9437000C94B0000C94B0000C94B00029
:100010000C94B0000C94B0000C94B0000C94B000A0
:100020000C94B0000C94B0000C94B0000C94B00090
:100030000C94B0000C94B0000C94B0000C94B00080
:100040000C94B0000C94B0000C94B0000C94B00070
:100050000C94B0000C94B0000C94B0000C94B00060
:100060000C94B0000C94B000010001048000112435
:100070001FBECFEFD8E0DEBFCDBFE8E6F0E040E046
:1000800017C0B591A59135912591059107FD0CC03B
:1000900095918591EF01F92FE82F05900D92A21708
:1000A000B307D9F7FE0104C01D92A217B307E1F709
:1000B000ED36F40731F70E9461000C949D00F8942E
:0200C000FFCF70
:1000C2000E9483000E94910083E090E00E94A800B9
:1000D20088EE93E00E94A8008091000190910101B6
:1000E2000E94A80080910201909103010E94A80041
:1000F2002FEF83ED90E3215080409040E1F700C064
:040102000000E2CF48
:10010600789480E480937C00EAE7F0E08FEA8083CD
:0C01160010927B0080818064808308953B
:100122001092C50087E68093C40086E08093C200E7
:0801320088E18093C1000895EB
:10013A00EC010E94B5000E94B400CE010E94B600F4
:06014A00CE010E94B2008C
:10015000E0ECF0E0908195FFFDCF8093C60008951C
:040160000C940000FB
:040164000E945F0096
:020168000895F8
:02016A000895F6
:02016C000895F4
:00000001FF
