:100000000C943A000C946C020C946C020C946C02EC
:100010000C946C020C946C020C946C020C945801BD
:100020000C946C020C946C020C946C020C9487017E
:100030000C946C020C946C020C946C020C946C0288
:100040000C946C020C946C020C946C020C946C0278
:100050000C946C020C946C020C946C020C946C0268
:100060000C946C020C946C02010001680004E6011F
:1000700068016D8011241FBECFEFD8E0DEBFCDBF79
:10008000E8E6F0E040E017C0B591A59135912591E3
:10009000059107FD0CC095918591EF01F92FE82F8F
:1000A00005900D92A217B307D9F7FE0104C01D9267
:1000B000A217B307E1F7E437F40731F70E94E00035
:0800C0000C944802F894FFCFF4
:1000C800CF93DF93CDB7DEB7C255D1090FB6F894F9
:1000D800DEBF0FBECDBF8AB18C608AB982E5E0E091
:1000E800F1E0BE016F5F7F4FDB0101900D928A95B1
:1000F800E1F72FEF85EA9EE0215080409040E1F73C
:1001080000C000008BB11BB82FE789EA93E02150AB
:1001180080409040E1F700C000002A9A2FE789EA62
:1001280093E0215080409040E1F700C000005A9AC7
:100138002FE789EA93E0215080409040E1F700C022
:1001480000005B9A2FE789EA93E0215080409040B5
:10015800E1F700C0000080E842E050E00E9426017C
:100168002FE789EA93E0215080409040E1F700C0F2
:100178000000BE016B5F7F4F80E84AE050E00E94BC
:1001880026012FE789EA93E0215080409040E1F76B
:1001980000C00000BE01675E7F4F80E847E150E085
:1001A8000E942601CE5ADF4F0FB6F894DEBF0FBE6D
:0801B800CDBFDF91CF91089546
:1001C000CF93DF93CDB7DEB72C970FB6F894DEBF91
:1001D0000FBECDBF0E942E020E943C020E941C0254
:1001E0000E94DE010E9468020E9462020E94640076
:1001F0008CE0E2E5F1E0DE01119601900D928A9526
:10020000E1F700EC1AE580E00E945B0280E00E94CA
:100210005B0201501109B9F7BE016F5F7F4F80E8A3
:1002200046E050E00E9426010CE11FE48FEF0E949F
:100230005B028FEF0E945B0201501109B9F709E7D9
:0C02400010E00E94B301F8018081FBCFA8
:10024C006F927F928F92CF92DF92EF924115510570
:10025C0011F13B01882E6B01E82E440F551F640EE3
:10026C00751E811C57FD8A945A9AF6015E2D0E94C8
:10027C005302872F0E945B02F6018491E7FC808178
:10028C000E945B025A9882E0C80ED11CE11CC61475
:10029C00D704E80449F7EF90DF90CF908F907F90D0
:0402AC006F900895B2
:1002B0001F920F920FB60F9211242F933F934F93DB
:1002C0005F936F937F938F939F93AF93BF93EF93BE
:1002D000FF9380916801853120F00E940302109203
:1002E0006801809168018F5F80936801FF91EF91B1
:1002F000BF91AF919F918F917F916F915F914F913E
:0E0300003F912F910F900FBE0F901F901895F8
:10030E001F921FB61F9211248F939F93EF93FF930B
:10031E0080916B01882319F010926B0128988091BF
:10032E006A01811110926A01E1E8F0E080818E7F0E
:10033E00808380818D7F808380818B7F808398B145
:10034E0084E0892788B91082FF91EF919F918F9158
:08035E001F901FBE1F901895AF
:10036600289A91E090936B01A8E8B0E022E13AE781
:1003760011963C932E93E1E8F0E0808184608083BF
:1003860090936A011092690184E690E011969C931D
:100396008E93808182608083809184009091850015
:1003A60080916A018111FECF81E0909169019130BF
:0603B60009F080E008954B
:1003BC00559A14BC15BC81E088BD84B5806384BD9E
:1003CC0084B5836084BD85B5886085BDE0EBF0E0C5
:1003DC001082808182608083E1EBF0E0108280816A
:1003EC00876080838081806880838AEF8093B300EC
:0A03FC0082E0809370007894089569
:1004060085B58B7F85BDE0916C01F0E0E25AFE4F29
:10041600808187BD85B5846085BD80916C018F5FC5
:1004260080936C0180916C018A3010F010926C01FF
:02043600089527
:10043800209A24983A9A10928000E1E8F0E08081AE
:10044800886080831082EFE6F0E08081826080839C
:0404580078940895F7
:10045C00789481E680937C00EAE7F0E086EA80837A
:0C046C0010927B008081806480830895E2
:100478001092C50087E68093C40086E08093C2008E
:0804880088E18093C100089592
:10049000EC010E9471020E947002CE010E94720261
:0604A000CE010E946E0275
:1004A60057FD03C065917591089561917191089505
:0E04B6002A988EBD0DB407FEFDCF2A9A089538
:0C04C40084B18C6284B980E58CBD089581
:0804D00085B5846085BD089527
:0404D8000C94000080
:0404DC000E94620018
:0204E00008957D
:0204E20008957B
:0204E400089579
:1004E600FDFDFDFD00EF04EE041BFEFEFEFE90EF9B
:1004F600044A3F7F04EE064390EF83090008AF0BE2
:10050600000A00050006000700EF0CEE90EF8000E1
:10051600B0EF024900EF017F81E102E276E283E17A
:10052600018090EF000008EF051800120013AF15C8
:0205360083162A
:0C05380008EF05187E1205150513AA1621
:0A0544005F005F005F7850000000C8
:00000001FF
