:100000000C943A000C9449030C9449030C94490352
:100010000C9449030C9449030C9449030C94490330
:100020000C9449030C9449030C9449030C94DD028D
:100030000C9449030C9449030C946B020C944903EF
:100040000C9449030C9449030C9449030C94490300
:100050000C9449030C9449030C9449030C944903F0
:100060000C9449030C944903010001680006A001A7
:1000700068016C8011241FBECFEFD8E0DEBFCDBF7A
:10008000E8E6F0E040E017C0B591A59135912591E3
:10009000059107FD0CC095918591EF01F92FE82F8F
:1000A00005900D92A217B307D9F7FE0104C01D9267
:1000B000A217B307E1F7E437F40731F70E9404020F
:0800C0000C942303F894FFCF18
:1000C800FCCEFCCEB7051CCF3DCFDBBE59AE79AE1A
:1000D80079AE000059AE9AB65DCF1CCFFCCEFCCEEF
:1000E8007E003DCF79AE79B652BC0ECB4CDA8AD1C0
:1000F8008AD100002CDAEED2F1BB38BE59AE3DCF22
:10010800FCCEFCCE7A001DCF9AB6D7B5CED204C8A5
:1001180003C004C004C0040003C003C000004CDADC
:1001280035BD79AE3DD7FCCEFCCE77003DCF58A685
:1001380090D303C803C005C005C0080004C002C0AE
:10014800AED218AE1CCFFCCEFCCE75001DCFF7A5E5
:100158008AD903C005C005C00C0003C087D0B6B556
:10016800FCC6FCCEFCCE73003DD7F7A508D103C072
:1001780005C005C00E0004C005D0B6B51CCFFCCE26
:10018800FCCE71001CCF59AECBD903C005C005C049
:10019800100004C087D018AE3DD7FCCEFCCE70004E
:1001A800BBBE11CC02C005C005C0120003C0ADD251
:1001B80079AEFCCEFCCE6F001DCF38B604C805C0A2
:1001C80005C0140002C035B5CDAB0000000000002A
:1001D8000000000000000000000000000000000017
:1001E8000000000000000000000000000000000007
:1001F80000000000000000000000000000000000F7
:1002080000000000000000000000000000000000E6
:1002180000000000000000000000000000000000D6
:1002280000000000000000000000000000000000C6
:1002380000000000000000000000000000000000B6
:1002480000000000000000000000000000000000A6
:10025800CF93DF93CDB7DEB7C255D1090FB6F89467
:10026800DEBF0FBECDBF8AB18C608AB982E5E0E0FF
:10027800F1E0BE016F5F7F4FDB0101900D928A951F
:10028800E1F72FEF85EA9EE0215080409040E1F7AA
:1002980000C000008BB11BB82FE789EA93E021501A
:1002A80080409040E1F700C000002A9A2FE789EAD1
:1002B80093E0215080409040E1F700C000005A9A36
:1002C8002FE789EA93E0215080409040E1F700C091
:1002D80000005B9A2FE789EA93E021508040904024
:1002E800E1F700C0000080E842E050E00E943902D7
:1002F8002FE789EA93E0215080409040E1F700C061
:100308000000BE016B5F7F4F80E84AE050E00E942A
:1003180039022FE789EA93E0215080409040E1F7C5
:1003280000C00000BE01675E7F4F80E847E150E0F3
:100338000E943902CE5ADF4F0FB6F894DEBF0FBEC7
:08034800CDBFDF91CF910895B4
:100350007F928F929F92AF92BF92CF92DF92EF9255
:10036000FF920F931F93CF93DF935C0120E030E067
:1003700077247394C12C2EC049014FEF841A940A3C
:10038000F501E80FF91F32964591559104171507AD
:1003900089F4F501E80FF91F3496E590F59082E0B5
:1003A000E80EF11C490143E0840E911C1E141F0449
:1003B0001CF00FC0E72CFC2CD12EC0E0D0E08D2D1E
:1003C0000E943603802F0E9436032196CE15DF054A
:1003D000B4F39401C901880F991FF501E80FF91FC3
:1003E000059115910D3C4BEA140731F6DF91CF9141
:1003F0001F910F91FF90EF90DF90CF90BF90AF9043
:080400009F908F907F900895FA
:10040800CF93DF93CDB7DEB72C970FB6F894DEBF46
:100418000FBECDBF0E9409030E9417030E94F80275
:100428000E949A020E943D030E9443030E942C01ED
:100438008CE0E2E5F1E0BE016F5F7F4FDB010190E8
:100448000D928A95E1F780E846E050E00E94390273
:1004580088EC90E00E94A801EAE7F0E0A9E7B0E0A4
:0A046800808186FFFDCF8C91FBCF51
:100472006F927F928F92CF92DF92EF924115510548
:1004820011F13B01882E6B01E82E440F551F640EBB
:10049200751E811C57FD8A945A9AF6015E2D0E94A0
:1004A2002E03872F0E943603F6018491E7FC808198
:1004B2000E9436035A9882E0C80ED11CE11CC61471
:1004C200D704E80449F7EF90DF90CF908F907F90A8
:0404D2006F9008958A
:1004D6001F920F920FB60F9211242F933F934F93B3
:1004E6005F936F937F938F939F93AF93BF93EF9396
:1004F600FF9380916801853120F00E94BE02109220
:100506006801809168018F5F80936801FF91EF9188
:10051600BF91AF919F918F917F916F915F914F9115
:0E0526003F912F910F900FBE0F901F901895D0
:10053400539AE0EBF0E01082A1EBB0E01C9292E061
:100544009093B40080818063808380818360808302
:100554008C9188608C9314BC84B5826084BD15BC76
:1005640085B5856085BD85B5806885BD8AEF87BD05
:0805740090936E007894089545
:10057C00E1EBF0E080818B7F808380818E7F8083B4
:10058C00A0916B01B0E0A25ABE4F8C918093B30046
:10059C0080818560808380916B018F5F80936B017C
:0E05AC0080916B018A3010F010926B0108955F
:1005BA001F921FB61F9211248F9380916A0188237C
:1005CA0029F010926A01589810928100809169016D
:1005DA00882321F010926901109281008F911F9057
:0605EA001FBE1F901895D2
:1005F000209A249810928000E1E8F0E080818860E1
:1006000080831082EFE6F0E08081826080837894BE
:0206100008954B
:10061200789481E680937C00EAE7F0E086EA8083C2
:0C06220010927B0080818064808308952A
:10062E001092C50087E68093C40086E08093C200D6
:08063E0088E18093C1000895DA
:10064600EC010E944E030E944D03CE010E944F030F
:06065600CE010E944B03DF
:10065C0057FD03C06591759108956191719108954D
:0E066C002A988EBD0DB407FEFDCF2A9A089580
:0C067A00E1EBF0E0808185608083089552
:0C06860084B18C6284B980E58CBD0895BD
:040692000C940000C4
:040696000E9462005C
:02069A000895C1
:02069C000895BF
:02069E000895BD
:1006A000FDFDFDFD00EF04EE041BFEFEFEFE90EFDF
:1006B000044A3F7F04EE064390EF83090008AF0B26
:1006C000000A00050006000700EF0CEE90EF800026
:1006D000B0EF024900EF017F81E102E276E283E1BF
:1006E000018090EF000008EF051800120013AF150D
:0206F00083166F
:0C06F20008EF0518661211131B159C166A
:0A06FE00BE00BE00BEEF9F0000002A
:00000001FF
