:100000000C943A000C9475040C9475040C947504CB
:100010000C9475040C9475040C9475040C94A20251
:100020000C9475040C9461030C9475040C942404D2
:100030000C944F010C94D1030C9475040C9475042A
:100040000C9475040C9475040C9475040C9475044C
:100050000C9475040C9475040C9475040C9475043C
:100060000C9475040C947504010001660008F801F5
:100070006601708011241FBECFEFD8E0DEBFCDBF78
:10008000E8E6F0E040E017C0B591A59135912591E3
:10009000059107FD0CC095918591EF01F92FE82F8F
:1000A00005900D92A217B307D9F7FE0104C01D9267
:1000B000A217B307E1F7E437F40731F70E94CB0149
:0800C0000C941904F894FFCF21
:1000C800CF93DF93CDB7DEB7C255D1090FB6F894F9
:1000D800DEBF0FBECDBF8AB18C608AB982E5E0E091
:1000E800F1E0BE016F5F7F4FDB0101900D928A95B1
:1000F800E1F72FEF85EA9EE0215080409040E1F73C
:1001080000C000008BB11BB82FE789EA93E02150AB
:1001180080409040E1F700C000002A9A2FE789EA62
:1001280093E0215080409040E1F700C000005A9AC7
:100138002FE789EA93E0215080409040E1F700C022
:1001480000005B9A2FE789EA93E0215080409040B5
:10015800E1F700C0000080E842E050E00E94700231
:100168002FE789EA93E0215080409040E1F700C0F2
:100178000000BE016B5F7F4F80E84AE050E00E94BC
:1001880070022FE789EA93E0215080409040E1F720
:1001980000C00000BE01675E7F4F80E847E150E085
:1001A8000E947002CE5ADF4F0FB6F894DEBF0FBE22
:0801B800CDBFDF91CF91089546
:1001C00010C00E94440458F00E943D0440F029F4FD
:1001D0005F3F29F00C945E0451110C944C040C9474
:1001E00072040E943F0368F39923B1F3552391F3FE
:1001F000951B550BBB27AA2762177307840738F096
:100200009F5F5F4F220F331F441FAA1FA9F335D0F2
:100210000E2E3AF0E0E832D091505040E695001CA6
:10022000CAF72BD0FE2F29D0660F771F881FBB1F60
:10023000261737074807AB07B0E809F0BB0B802D3E
:10024000BF01FF2793585F4F3AF09E3F510578F06A
:100250000C945E040C944C045F3FE4F3983ED4F39A
:10026000869577956795B795F7959F5FC9F7880F3E
:10027000911D9695879597F90895E1E0660F771F90
:10028000881FBB1F621773078407BA0720F0621B21
:0E029000730B840BBA0BEE1F88F7E0950895F0
:10029E001F921FB61F9211248F93EF93FF9380919D
:1002AE006801833088F080916A0181110DC04298F7
:1002BE0010926B0110926801E1E8F0E080818B7F73
:1002CE00808380818E7F808380916801863098F054
:1002DE0080916A01813079F410926B0110926A015B
:1002EE00109268014298E1E8F0E080818B7F808374
:1002FE0080818E7F8083809168018F5F80936801FB
:0E030E00FF91EF918F911F901FBE1F901895C9
:10031C00E89409C097FB3EF4909580957095619593
:10032C007F4F8F4F9F4F9923A9F0F92F96E9BB2749
:10033C009395F695879577956795B795F111F8CFC5
:10034C00FAF4BB0F11F460FF1BC06F5F7F4F8F4F30
:10035C009F4F16C0882311F096E911C0772321F026
:10036C009EE8872F762F05C0662371F096E8862FBE
:10037C0070E060E02AF09A95660F771F881FDAF715
:0A038C00880F9695879597F908955C
:100396000E9458040E94F4030E9402040E941D0356
:1003A6000E9464040E9452040E946400C0E0D1E0EE
:1003B60010E0499904C0D0936A010E94D1021999AC
:1003C60007C0C11105C00E94BB03B89BFECFCD2F4D
:1003D6001999C12F80916B018111EBCF80916A0130
:1003E6008111E7CF0E940302882319F3429A809174
:1003F60069010E940E04D0936B010E94D102D9CFED
:1004060081E080936F01439A0E94810380916F017E
:100416008111FCCF43980E94A003B59BFECF10929A
:1004260085001092840081E08093810090E296BB63
:1004360086BB1092670110926601B59BFECF609154
:1004460086007091870080E090E00E94900129E28A
:100456003CE349E654E40E946E0420E030E040E2CA
:0E04660051E40E946904881F8827881F0895AA
:1004740085B58B7F85BD20916C0180916E0190E0E4
:10048400FC01EE0FFF1F880F991F880F991F880F1B
:10049400991FE80FF91FEE5AFE4FE20FF11D8081FC
:1004A40087BD85B5846085BD80916C018F5F809325
:1004B4006C0180916C018A3080F085B58B7F85BD9D
:1004C400E1EBF0E080818B7F808380818D7F80836E
:0C04D40080818E7F808310926C0108955F
:1004E0006F927F928F92CF92DF92EF9241155105DA
:1004F00011F13B01882E6B01E82E440F551F640E4D
:10050000751E811C57FD8A945A9AF6015E2D0E9431
:100510002E04872F0E943604F6018491E7FC808127
:100520000E9436045A9882E0C80ED11CE11CC61401
:10053000D704E80449F7EF90DF90CF908F907F9039
:040540006F9008951B
:100544001F920F920FB60F9211242F933F934F9344
:100554005F936F937F938F939F93AF93BF93EF9327
:10056400FF9380916D01853120F00E943A02109230
:100574006D0180916D018F5F80936D01FF91EF910B
:10058400BF91AF919F918F917F916F915F914F91A7
:0E0594003F912F910F900FBE0F901F90189562
:1005A200CF93DF93C0E8D0E01882E1E8F0E0108258
:1005B200AFE6B0E01C9216BA109285001092840049
:1005C2001882808188608083808185608083E2E8F0
:1005D200F0E08081806480838C9184608C938FEFC3
:1005E2009FEF9093890080938800DF91CF910895C7
:1005F200990F0008550FAA0BE0E8FEEF1616170632
:10060200E807F907C0F012161306E407F50798F099
:10061200621B730B840B950B39F40A2661F0232BB2
:10062200242B252B21F408950A2609F4A140A6952E
:080632008FEF811D811D089569
:10063A00559A14BC15BC81E088BD84B5806384BD1D
:10064A0084B5836084BD85B5886085BDE0EBF0E044
:10065A001082808182608083E1EBF0E010828081E9
:10066A00806880838AEF8093B30082E08093700071
:04067A0078940895D3
:10067E0057FD9058440F551F59F05F3F71F0479545
:10068E00880F97FB991F61F09F3F79F0879508952A
:10069E00121613061406551FF2CF4695F1DF08C049
:1006AE00161617061806991FF1CF86957105610566
:0406BE0008940895FF
:1006C2001F921FB61F9211248F93EF93FF931999D4
:1006D2000BC0809169018F5F8093690180916901EC
:1006E200833010F010926901E1EBF0E08081887FA5
:1006F2008083FF91EF918F911F901FBE1F901895DD
:1007020010928000E1E8F0E01082AFE6B0E01C92C7
:1007120016BA808188608083808181608083E2E86C
:10072200F0E08081806880838C9182608C9380EC81
:0E07320090E090938900809388007894089559
:10074000CF93DF93A0E8B0E01C92E1E8F0E01082E4
:10075000CFE6D0E0188216BA81E088831C9210920E
:1007600085001092840091E4908390E296BB86BB52
:06077000DF91CF91089516
:10077600E0E7F0E0808181608083E0EBF0E080815B
:100786008D7F808380818E7F8083E1EBF0E08081A6
:0C079600877F80838081876080830895C6
:1007A2008F938FB78F939F9380916601909167018A
:1007B200019690936701809366019F918F918FBFFD
:0407C2008F91189566
:1007C600092E0394000C11F4882352F0BB0F40F459
:1007D600BF2B11F460FF04C06F5F7F4F8F4F9F4F99
:0207E600089574
:1007E800789481E680937C00EAE7F0E086EA8083EB
:0C07F80010927B00808180648083089553
:100804001092C50087E68093C40086E08093C200FE
:0808140088E18093C100089502
:10081C0080936E0185B5846085BDE1EBF0E080814D
:06082C008760808308953F
:10083200EC010E947A040E947904CE010E947B049A
:06084200CE010E947704C4
:100848001F921FB61F92112410926F011F901FBE96
:040858001F90189540
:10085C0057FD03C06591759108956191719108954B
:0E086C002A988EBD0DB407FEFDCF2A9A08957E
:0E087A0000240A94161617061806090608959B
:0E08880000240A94121613061406050608959D
:0E089600E894BB2766277727CB0197F90895D2
:0C08A40084B18C6284B980E58CBD08959D
:0C08B0003B9A2098289A3A9A7894089570
:0C08BC0097F99F6780E870E060E0089505
:0A08C8005198599A2198299A089531
:0A08D2000E94F90208F481E0089585
:0808DC000E94E0000C94E3030C
:0608E4009FEF80EC089577
:0408EA000C9400006A
:0408EE000E94620002
:0208F200089567
:0208F400089565
:0208F600089563
:1008F800FDFDFDFD00EF04EE041BFEFEFEFE90EF85
:10090800044A3F7F04EE064390EF83090008AF0BCB
:10091800000A00050006000700EF0CEE90EF8000CB
:10092800B0EF024900EF017F81E102E276E283E164
:10093800018090EF000008EF051800120013AF15B2
:02094800831614
:10094A005F005F005F785000000050785F005F0032
:04095A005F0000003A
:00000001FF
