:100000000C943A000C94A9040C94A9040C94A9042F
:100010000C94A9040C94A9040C94A9040C94F20265
:100020000C94A9040C94A9040C94A9040C945004F5
:100030000C94BC010C940B040C94A9040C94A9041A
:100040000C94A9040C94A9040C94A9040C94A9047C
:100050000C94A9040C94A9040C94A9040C94A9046C
:100060000C94A9040C94A904010001700009640116
:1000700070017A8011241FBECFEFD8E0DEBFCDBF64
:10008000E8E6F0E040E017C0B591A59135912591E3
:10009000059107FD0CC095918591EF01F92FE82F8F
:1000A00005900D92A217B307D9F7FE0104C01D9267
:1000B000A217B307E1F7E437F40731F70E944F01C5
:0800C0000C944504F894FFCFF5
:1000C800CF93DF93CDB7DEB7C255D1090FB6F894F9
:1000D800DEBF0FBECDBF8AB18C608AB982E5E0E091
:1000E800F1E0BE016F5F7F4FDB0101900D928A95B1
:1000F800E1F72FEF85EA9EE0215080409040E1F73C
:1001080000C000008BB11BB82FE789EA93E02150AB
:1001180080409040E1F700C000002A9A2FE789EA62
:1001280093E0215080409040E1F700C000005A9AC7
:100138002FE789EA93E0215080409040E1F700C022
:1001480000005B9A2FE789EA93E0215080409040B5
:10015800E1F700C0000080E842E050E00E94C002E1
:100168002FE789EA93E0215080409040E1F700C0F2
:100178000000BE016B5F7F4F80E84AE050E00E94BC
:10018800C0022FE789EA93E0215080409040E1F7D0
:1001980000C00000BE01675E7F4F80E847E150E085
:1001A8000E94C002CE5ADF4F0FB6F894DEBF0FBED2
:0801B800CDBFDF91CF91089546
:1001C00010C00E94780458F00E94710440F029F495
:1001D0005F3F29F00C94920451110C9480040C940C
:1001E000A6040E948F0368F39923B1F3552391F37A
:1001F000951B550BBB27AA2762177307840738F096
:100200009F5F5F4F220F331F441FAA1FA9F335D0F2
:100210000E2E3AF0E0E832D091505040E695001CA6
:10022000CAF72BD0FE2F29D0660F771F881FBB1F60
:10023000261737074807AB07B0E809F0BB0B802D3E
:10024000BF01FF2793585F4F3AF09E3F510578F06A
:100250000C9492040C9480045F3FE4F3983ED4F332
:10026000869577956795B795F7959F5FC9F7880F3E
:10027000911D9695879597F90895E1E0660F771F90
:10028000881FBB1F621773078407BA0720F0621B21
:0E029000730B840BBA0BEE1F88F7E0950895F0
:10029E000E948C040E946D030E942E040E94B103E2
:1002AE000E9498040E9486040E946400F12CCAE702
:1002BE00D0E00F2EF8E7CF2ED12CF02D09E710E06D
:1002CE00EE24E394888186FFFDCF8AEA0E945A04C9
:1002DE00F6018081F80180810E945A04499907C075
:1002EE00E09274018E2D0E94AE040E942103199992
:1002FE001FC0F1101DC0FFEF2FE183E0F150204031
:10030E008040E1F700C00000199911C0809173017F
:10031E008F5F8093730180917301833010F0109280
:10032E007301809173010E94AD04FE2C01C0FE2C5E
:10033E001999F12C809175018111C4CF80917401AE
:10034E008111C0CFF8018081853B08F4BBCF0E949C
:10035E008902882309F4B6CF809173010E943A0472
:0A036E00E09275010E942103ADCF5B
:100378001F920F920FB60F9211242F933F934F9312
:100388005F936F937F938F939F93AF93BF93EF93F5
:10039800FF9380917201833080F080917401811104
:1003A8000CC01092750110927201E1E8F0E08081B2
:1003B8008B7F808380818E7F8083809172018630DD
:1003C800A8F080917401813089F41092750110921F
:1003D80074011092720180E00E94AE04E1E8F0E03E
:1003E80080818B7F808380818E7F80838091720162
:1003F8008F5F80937201FF91EF91BF91AF919F91B1
:100408008F917F916F915F914F913F912F910F90B5
:080418000FBE0F901F90189514
:10042000E89409C097FB3EF490958095709561958E
:100430007F4F8F4F9F4F9923A9F0F92F96E9BB2744
:100440009395F695879577956795B795F111F8CFC0
:10045000FAF4BB0F11F460FF1BC06F5F7F4F8F4F2B
:100460009F4F16C0882311F096E911C0772321F021
:100470009EE8872F762F05C0662371F096E8862FB9
:1004800070E060E02AF09A95660F771F881FDAF710
:0A049000880F9695879597F9089557
:10049A0085B58B7F85BD209176018091780190E0AA
:1004AA00FC01EE0FFF1F880F991F880F991F880FF5
:1004BA00991FE80FF91FEE5AFE4FE20FF11D8081D6
:1004CA0087BD8FE193E00197F1F700C0000085B581
:1004DA00846085BD809176018F5F809376018091DB
:1004EA0076018A3080F085B58B7F85BDE1EBF0E03F
:1004FA0080818B7F808380818D7F808380818E7FC6
:08050A00808310927601089530
:1005120081E080937901439A0E94D103809179010D
:100522008111FCCF43980E94F003B59BFECF10923D
:1005320085001092840081E08093810090E296BB56
:1005420086BB1092710110927001B59BFECF609133
:1005520086007091870080E090E00E94120229E2FA
:100562003CE349E654E40E94A20420E030E040E289
:0E05720051E40E949D04881F8827881F089569
:100580006F927F928F92CF92DF92EF924115510539
:1005900011F13B01882E6B01E82E440F551F640EAC
:1005A000751E811C57FD8A945A9AF6015E2D0E9491
:1005B0006204872F0E946A04F6018491E7FC80811F
:1005C0000E946A045A9882E0C80ED11CE11CC6142D
:1005D000D704E80449F7EF90DF90CF908F907F9099
:0405E0006F9008957B
:1005E4001F920F920FB60F9211242F933F934F93A4
:1005F4005F936F937F938F939F93AF93BF93EF9387
:10060400FF9380917701853120F00E944D02109272
:100614007701809177018F5F80937701FF91EF914C
:10062400BF91AF919F918F917F916F915F914F9106
:0E0634003F912F910F900FBE0F901F901895C1
:10064200CF93DF93C0E8D0E01882E1E8F0E01082B7
:10065200AFE6B0E01C9216BA1092850010928400A8
:100662001882808188608083808185608083E2E84F
:10067200F0E08081806480838C9184608C938FEF22
:100682009FEF9093890080938800DF91CF91089526
:10069200990F0008550FAA0BE0E8FEEF1616170691
:1006A200E807F907C0F012161306E407F50798F0F9
:1006B200621B730B840B950B39F40A2661F0232B12
:1006C200242B252B21F408950A2609F4A140A6958E
:0806D2008FEF811D811D0895C9
:1006DA007894ECE7F0E010828081806480838081E6
:1006EA0080628083808181608083EAE7F0E0108203
:1006FA00808180688083808181608083808182603C
:10070A00808380818460808310927B0080818064F2
:04071A00808308953B
:10071E0057FD9058440F551F59F05F3F71F04795A4
:10072E00880F97FB991F61F09F3F79F08795089589
:10073E00121613061406551FF2CF4695F1DF08C0A8
:10074E00161617061806991FF1CF869571056105C5
:04075E00089408955E
:10076200559A14BC15BC81E088BD84B5806384BDF4
:1007720084B5836084BD85B5886085BDE0EBF0E01B
:10078200808182608083E1EBF0E0808180688083F9
:100792008AEF8093B30082E080937000789408958A
:1007A20010928000E1E8F0E01082AFE6B0E01C9227
:1007B20016BA808188608083808181608083E2E8CC
:1007C200F0E08081806880838C9182608C9380ECE1
:0E07D20090E0909389008093880078940895B9
:1007E000CF93DF93A0E8B0E01C92E1E8F0E0108244
:1007F000CFE6D0E0188216BA81E088831C9210926E
:1008000085001092840091E4908390E296BB86BBB1
:06081000DF91CF91089575
:100816008F938FB78F939F93809170019091710101
:10082600019690937101809370019F918F918FBF74
:040836008F911895F1
:10083A00092E0394000C11F4882352F0BB0F40F4E4
:10084A00BF2B11F460FF04C06F5F7F4F8F4F9F4F24
:02085A000895FF
:10085C001092C50087E68093C40086E08093C200A6
:08086C0088E18093C1000895AA
:100874008093780185B5846085BDE1EBF0E08081EB
:06088400876080830895E7
:10088A00EC010E94B0040E94AF04CE010E94B104A0
:06089A00CE010E94AB0438
:1008A0001F921FB61F921124109279011F901FBE34
:0408B0001F901895E8
:1008B400E0ECF0E0908195FFFDCF8093C6000895B1
:1008C40057FD03C0659175910895619171910895E3
:0E08D4002A988EBD0DB407FEFDCF2A9A089516
:0E08E20000240A941616170618060906089533
:0E08F00000240A941216130614060506089535
:0E08FE00E894BB2766277727CB0197F908956A
:0C090C0084B18C6284B980E58CBD089534
:0C0918003B9A2098289A3A9A7894089507
:0C09240097F99F6780E870E060E008959C
:0A0930005198599A2198299A0895C8
:0A093A000E94490308F481E00895CB
:080944000E94E0000C941D0468
:06094C009FEF80EC08950E
:040952000C94000001
:040956000E94620099
:02095A000895FE
:02095C000895FC
:02095E000895FA
:020960000895F8
:020962000895F6
:10096400FDFDFDFD00EF04EE041BFEFEFEFE90EF18
:10097400044A3F7F04EE064390EF83090008AF0B5F
:10098400000A00050006000700EF0CEE90EF80005F
:10099400B0EF024900EF017F81E102E276E283E1F8
:1009A400018090EF000008EF051800120013AF1546
:0209B4008316A8
:1009B6005F005F005F785000000050785F005F00C6
:0E09C6005F000000505047503C3F0000000012
:00000001FF
