:100000000C943A000C9489020C9489020C94890295
:100010000C9489020C9489020C9489020C94BD0101
:100020000C9489020C9489020C9489020C94570256
:100030000C94E0000C942E020C9489020C9489021A
:100040000C9489020C9489020C9489020C94890204
:100050000C9489020C9489020C9489020C948902F4
:100060000C9489020C9489020100017000052001A2
:100070007001798011241FBECFEFD8E0DEBFCDBF65
:10008000E8E6F0E040E017C0B591A59135912591E3
:10009000059107FD0CC095918591EF01F92FE82F8F
:1000A00005900D92A217B307D9F7FE0104C01D9267
:1000B000A217B307E1F7E437F40731F70E948D0187
:0800C0000C944C02F894FFCFF0
:1000C800CF93DF93CDB7DEB7C255D1090FB6F894F9
:1000D800DEBF0FBECDBF8AB18C608AB982E5E0E091
:1000E800F1E0BE016F5F7F4FDB0101900D928A95B1
:1000F800E1F72FEF85EA9EE0215080409040E1F73C
:1001080000C000008BB11BB82FE789EA93E02150AB
:1001180080409040E1F700C000002A9A2FE789EA62
:1001280093E0215080409040E1F700C000005A9AC7
:100138002FE789EA93E0215080409040E1F700C022
:1001480000005B9A2FE789EA93E0215080409040B5
:10015800E1F700C0000080E842E050E00E945B0147
:100168002FE789EA93E0215080409040E1F700C0F2
:100178000000BE016B5F7F4F80E84AE050E00E94BC
:100188005B012FE789EA93E0215080409040E1F736
:1001980000C00000BE01675E7F4F80E847E150E085
:1001A8000E945B01CE5ADF4F0FB6F894DEBF0FBE38
:0801B800CDBFDF91CF91089546
:1001C0001F921FB61F9211248F93EF93FF9380917C
:1001D0007201833088F08091730181110DC04298C3
:1001E0001092740110927201E1E8F0E080818B7F3F
:1001F000808380818E7F808380917201863098F029
:1002000080917301813079F410927401109273011E
:10021000109272014298E1E8F0E080818B7F808348
:1002200080818E7F8083809172018F5F80937201C5
:0E023000FF91EF918F911F901FBE1F901895A8
:10023E0085B58B7F85BD209175018091770190E00A
:10024E00FC01EE0FFF1F880F991F880F991F880F53
:10025E00991FE80FF91FEE5AFE4FE20FF11D808134
:10026E0087BD8FE193E00197F1F700C0000085B5DF
:10027E00846085BD809175018F5F8093750180913B
:10028E0075018A3080F085B58B7F85BDE1EBF0E09E
:10029E0080818B7F808380818D7F808380818E7F24
:0802AE00808310927501089590
:1002B6006F927F928F92CF92DF92EF924115510506
:1002C60011F13B01882E6B01E82E440F551F640E79
:1002D600751E811C57FD8A945A9AF6015E2D0E945E
:1002E6006902872F0E947102F6018491E7FC8081E2
:1002F6000E9471025A9882E0C80ED11CE11CC614F5
:10030600D704E80449F7EF90DF90CF908F907F9065
:040316006F90089547
:10031A000E947E020E94EC010E9440020E940E028C
:10032A000E9484020E9478020E946400CAE7D0E018
:10033A000F2EF8E7EF2EF12CF02D09E710E0888157
:10034A0080648883888186FFFDCF8AEA0E946102E1
:10035A00F7018081F80180810E946102FFEF29E69E
:10036A0088E1F15020408040E1F700C00000E7CF6B
:10037A001F920F920FB60F9211242F933F934F9310
:10038A005F936F937F938F939F93AF93BF93EF93F3
:10039A00FF9380917601853120F00E941F0110920F
:1003AA007601809176018F5F80937601FF91EF91BC
:1003BA00BF91AF919F918F917F916F915F914F9173
:0E03CA003F912F910F900FBE0F901F9018952E
:1003D8007894ECE7F0E010828081806480838081EB
:1003E80080628083808181608083EAE7F0E0108208
:1003F8008081806880838081816080838081826041
:10040800808380818460808310927B0080818064F7
:040418008083089540
:10041C00559A14BC15BC81E088BD84B5806384BD3D
:10042C0084B5836084BD85B5886085BDE0EBF0E064
:10043C00808182608083E1EBF0E080818068808342
:10044C008AEF8093B30082E08093700078940895D3
:10045C008F938FB78F939F938091700190917101BF
:10046C00019690937101809370019F918F918FBF32
:04047C008F911895AF
:100480001092C50087E68093C40086E08093C20086
:0804900088E18093C10008958A
:10049800EC010E948E020E948D02CE010E948F0202
:0604A800CE010E948B0250
:1004AE001F921FB61F921124109278011F901FBE2B
:0404BE001F901895DE
:1004C200E0ECF0E0908195FFFDCF8093C6000895A7
:1004D20057FD03C0659175910895619171910895D9
:0E04E2002A988EBD0DB407FEFDCF2A9A08950C
:0C04F00084B18C6284B980E58CBD089555
:0C04FC003B9A2098289A3A9A7894089528
:0A0508005198599A2198299A0895F4
:040512000C94000045
:040516000E946200DD
:02051A00089542
:02051C00089540
:02051E0008953E
:10052000FDFDFDFD00EF04EE041BFEFEFEFE90EF60
:10053000044A3F7F04EE064390EF83090008AF0BA7
:10054000000A00050006000700EF0CEE90EF8000A7
:10055000B0EF024900EF017F81E102E276E283E140
:10056000018090EF000008EF051800120013AF158E
:020570008316F0
:100572005F005F005F785000000050785F005F000E
:0E0582005F000000505047503C3F000000005A
:00000001FF
