:100000000C943A000C94940B0C94940B0C94940B59
:100010000C94940B0C94940B0C94940B0C94BD0ABC
:100020000C94940B0C94940B0C94940B0C94110B57
:100030000C94940B0C94940B0C94940B0C94940BC4
:100040000C94940B0C94940B0C94940B0C94940BB4
:100050000C94940B0C94940B0C94940B0C94940BA4
:100060000C94940B0C94940B01000168001736015A
:1000700068016C8011241FBECFEFD8E0DEBFCDBF7A
:10008000E8E6F0E040E017C0B591A59135912591E3
:10009000059107FD0CC095918591EF01F92FE82F8F
:1000A00005900D92A217B307D9F7FE0104C01D9267
:1000B000A217B307E1F7E437F40731F70E943F0ACC
:0800C0000C94700BF894FFCFC3
:1000C800BA6BBA6B02000000FFFFFFFF02000000DE
:1000D80000001400FFFF000000000300A0FB000068
:1000E8000000C4095B425B420C00000000003500C0
:1000F800275527550A00000000005B005B425B4261
:100108000C00000000003500275527550A000000A4
:1001180000005B005B425B420C0000000000350001
:10012800275527550A00000000005B005B425B4230
:100138000C00000000003200275527551000000071
:10014800000009002755275507000000000044005B
:100158005B425B420400BA6BBA6B0C005B425B42C9
:100168000400000000002E0027552755100000004D
:10017800000009002755275507000000000044002B
:100188005B425B420400BA6BBA6B0C005B425B4299
:100198000400000000002E0027552755100000001D
:1001A80000000900275527550700000000004400FB
:1001B8005B425B420400BA6BBA6B0C005B425B4269
:1001C8000400000000002E002755275513000000EA
:1001D80000000300275527550D00000000004100CE
:1001E8005B425B420400BA6BBA6B0C005B425B4239
:1001F8000400000000002E002755275513000000BA
:1002080000000300275527550D00000000003D00A1
:100218005B425B420400BA6BBA6B0C005B425B4208
:100228000400000000003200275527551300000085
:1002380000000300275527550D00000000003D0071
:100248005B425B420400BA6BBA6B0C005B425B42D8
:100258000400000000003200275527551300000055
:1002680000000300275527550D00000000003D0041
:100278005B425B420400BA6BBA6B0C005B425B42A8
:100288000400000000003200275527551300000025
:1002980000000300275527550D00000000003D0011
:1002A8005B425B420400BA6BBA6B0C005B425B4278
:1002B80004000000000032002755275513000000F5
:1002C80000000300275527550D00000000003900E5
:1002D8005B425B420400BA6BBA6B14005B425B4240
:1002E8000400000000002E002755275523000000B9
:1002F800000039005B425B420400BA6BBA6B140021
:100308005B425B420400000000003100275527557E
:100318001D00000000003C005B425B420400BA6B19
:10032800BA6B14005B425B4204000000000031001D
:10033800275527551D00000000003C005B425B422A
:100348000400BA6BBA6B14005B425B420400000005
:1003580000003100275527551D0000000000380017
:100368005B425B420400BA6BBA6B1C005B425B42A7
:100378000400000000003000275527551000000039
:10038800000016002755275507000000000025002B
:100398005B425B420400BA6BBA6B1C005B425B4277
:1003A8000400000000003000275527551000000009
:1003B80000001600275527550700000000002500FB
:1003C8005B425B420400BA6BBA6B1C005B425B4247
:1003D80004000000000030002755275510000000D9
:1003E80000001600275527550700000000002500CB
:1003F8005B425B420400BA6BBA6B1C005B425B4217
:100408000400000000003D002755275503000000A8
:1004180000000600275527550A00000000000300C9
:10042800275527550A000000000021005B425B4267
:100438000400BA6BBA6B24005B425B420400000004
:10044800000039002755275503000000000006006A
:10045800275527550A000000000003002755275597
:100468000A000000000021005B425B420400BA6BF6
:10047800BA6B24005B425B420400000000003900B4
:10048800275527550300000000000600275527556B
:100498000A00000000000300275527550A00000045
:1004A800000021005B425B420400BA6BBA6B240077
:1004B8005B425B42040000000000390027552755C5
:1004C800030000000000060027552755140000000F
:1004D800000024005B425B420400BA6BBA6B240044
:1004E8005B425B4204000000000039002755275595
:1004F80003000000000006002755275514000000DF
:10050800000024005B425B420400BA6BBA6B240013
:100518005B425B4204000000000039002755275564
:1005280003000000000006002755275514000000AE
:10053800000024005B425B420400BA6BBA6B2400E3
:100548005B425B4204000000000039002755275534
:10055800030000000000060027552755140000007E
:10056800000024005B425B420400BA6BBA6B2400B3
:100578005B425B4204000000000039002755275504
:100588000300000000000A00275527550A00000054
:1005980000002A005B425B420400BA6BBA6B24007D
:1005A8005B425B42040000000000390027552755D4
:1005B8000300000000000A00275527550A00000024
:1005C800000026005B425B420400BA6BBA6B2C0049
:1005D8005B425B42040000000000350027552755A8
:1005E80003000000000011002755275503000000F4
:1005F800000026005B425B420400BA6BBA6B2C0019
:100608005B425B4204000000000035002755275577
:1006180003000000000011002755275503000000C3
:10062800000026005B425B420400BA6BBA6B2C00E8
:100638005B425B420400000000002100275527555B
:100648000400000000001000275527550300000093
:100658000000110027552755030000000000260060
:100668005B425B420400BA6BBA6B0800FFFFFFFFF6
:100678000400000000000300BA6BBA6B0E00FFFF15
:10068800FFFF0400000000000300BA6BBA6B08000B
:100698005B425B42040000000000210027552755FB
:1006A8000400000000001000275527550300000033
:1006B8000000110027552755030000000000260000
:1006C8005B425B420400BA6BBA6B0800FFFFFFFF96
:1006D8000400000000000300BA6BBA6B0E00FFFFB5
:1006E800FFFF0400000000000300BA6BBA6B0800AB
:1006F8005B425B420400000000002100275527559B
:100708000800000000000C002755275503000000D2
:10071800000011002755275503000000000026009F
:100728005B425B420400BA6BBA6B0800FFFFFFFF35
:100738000400000000000300BA6BBA6B0E00FFFF54
:10074800FFFF0400000000000300BA6BBA6B08004A
:100758005B425B420400000000002100275527553A
:100768000800000000000C00275527550300000072
:10077800000011002755275503000000000026003F
:100788005B425B420400BA6BBA6B0800FFFFFFFFD5
:100798000400000000000300BA6BBA6B0E00FFFFF4
:1007A800FFFF0400000000000300BA6BBA6B0800EA
:1007B8005B425B42040000000000220027552755D9
:1007C8000B00000000000800275527550300000013
:1007D80000001100275527550300000000002600DF
:1007E8005B425B420400BA6BBA6B08000000000071
:1007F8000700BA6BBA6B0E00000000000700BA6B66
:10080800BA6B08005B425B42040000000000220053
:10081800275527550B0000000000080027552755CD
:1008280003000000000011002755275503000000B1
:10083800000026005B425B420400BA6BBA6B0800FA
:10084800000000000700BA6BBA6B0E000000000041
:100858000700BA6BBA6B08005B425B4204000000F9
:1008680000002200275527550B0000000000080053
:10087800275527550300000000001100275527556C
:10088800030000000000050027552755060000005A
:1008980000001B005B425B420400BA6BBA6B0800A5
:1008A800000000000700BA6BBA6B0E0000000000E1
:1008B8000700BA6BBA6B08005B425B420400000099
:1008C80000002200275527550B00000000000800F3
:1008D800275527550300000000001100275527550C
:1008E80003000000000005002755275506000000FA
:1008F80000001B005B425B420400BA6BBA6B2C0021
:100908005B425B4204000000000024002755275585
:100918000C000000000005002755275503000000C3
:1009280000001100275527550300000000000200B1
:10093800275527550900000000001B005B425B4259
:100948000400BA6BBA6B2C005B425B4204000000E7
:1009580000002400275527550C0000000000050062
:10096800275527550300000000001100275527557B
:100978000300000000000200275527550900000069
:1009880000001B005B425B420400BA6BBA6B2C0090
:100998005B425B42040000000000240027552755F5
:1009A8000C00000000000500275527550300000033
:1009B8000000110027552755030000000000020021
:1009C800275527550700000000001D005B425B42C9
:1009D8000400BA6BBA6B2C005B425B420400000057
:1009E80000002600275527550A00000000000500D2
:1009F80027552755030000000000110027552755EB
:100A080003000000000002002755275507000000DA
:100A180000001D005B425B420400BA6BBA6B2C00FD
:100A28005B425B4204000000000026002755275562
:100A38000D000000000002002755275503000000A4
:100A480000001100275527550C00000000001D006C
:100A58005B425B420400BA6BBA6B2C005B425B42A0
:100A6800040000000000260027552755120000004A
:100A7800000011002755275506000000000023003C
:100A88005B425B420400BA6BBA6B0B0000000000CB
:100A98000500BA6BBA6B0C00000000000500BA6BC9
:100AA800BA6B0B005B425B420400000000002E00A2
:100AB800275527550A000000000011002755275523
:100AC80003000000000026005B425B420400BA6B92
:100AD800BA6B0B00000000000500BA6BBA6B0C0083
:100AE800000000000500BA6BBA6B0B005B425B426A
:100AF80004000000000032002755275506000000BA
:100B080000001100275527550300000000002600AB
:100B18005B425B420400BA6BBA6B0B00000000003A
:100B28000500BA6BBA6B0C00000000000500BA6B38
:100B3800BA6B0B005B425B4204000000000035000A
:100B48002755275503000000000011002755275599
:100B58000300000000002A005B425B420400BA6BFD
:100B6800BA6B0A00000000001000BA6BBA6B0A00EA
:100B78005B425B42040000000000390027552755FE
:100B8800030000000000110027552755030000004E
:100B980000002A005B425B420400BA6BBA6B0A0091
:100BA800000000001000BA6BBA6B0A005B425B429F
:100BB80004000000000039002755275503000000F5
:100BC80000001100275527550300000000002A00E7
:100BD8005B425B420400BA6BBA6B0A00000000007B
:100BE8001000BA6BBA6B0A005B425B42040000005B
:100BF80000003900275527550300000000001100A8
:100C0800275527550300000000002A005B425B427D
:100C18000400BA6BBA6B24005B425B42040000001C
:100C28000000390027552755030000000000110077
:100C3800275527550300000000002A005B425B424D
:100C48000400BA6BBA6B24005B425B4204000000EC
:100C58000000390027552755030000000000110047
:100C6800275527550300000000002A005B425B421D
:100C78000400BA6BBA6B24005B425B4204000000BC
:100C88000000390027552755030000000000110017
:100C9800275527550300000000002A005B425B42ED
:100CA8000400BA6BBA6B24005B425B42040000008C
:100CB80000003900275527550300000000001100E7
:100CC800275527550300000000002E005B425B42B9
:100CD8000700BA6BBA6B16005B425B420700000064
:100CE80000003D00275527550300000000001100B3
:100CF800275527550300000000002E005B425B4289
:100D08000700BA6BBA6B16005B425B420700000033
:100D180000003D0027552755030000000000110082
:100D2800275527550300000000002E005B425B4258
:100D38000700BA6BBA6B16005B425B420700000003
:100D480000003D0027552755030000000000110052
:100D5800275527550300000000002E005B425B4228
:100D68000700BA6BBA6B16005B425B4207000000D3
:100D780000003D0027552755030000000000110022
:100D88002755275503000000000035005B425B42F1
:100D980016000000000044002755275503000000F6
:100DA80000001100275527550300000000003500FA
:100DB8005B425B421600000000004400275527559F
:100DC800030000000000110027552755030000000C
:100DD800000035005B425B42160000000000440042
:100DE80027552755030000000000110027552755F7
:100DF80003000000000035005B425B421600000063
:100E0800000044002755275503000000000011008A
:100E1800275527550300000000008F002755275548
:100E280003000000000011002755275503000000AB
:100E380000008F002755275503000000000011000F
:100E4800275527550300000000008F002755275518
:100E5800030000000000110027552755030000007B
:100E680000008F00275527550300000000001100DF
:100E7800275527550300000000008F0027552755E8
:100E8800030000000000110027552755030000004B
:100E980000008F00275527550300000000001100AF
:100EA80027552755030000000000860007720772C7
:100EB800260000000000800007720772260000006C
:100EC80000008000077207720200AA8AAA8A14002A
:100ED800487A487A0E000772077202000000000084
:100EE8008000077207720200AA8AAA8A1400487A48
:100EF800487A0E00077207720200000000008000A6
:100F0800077207720200AA8AAA8A1400487A487AE5
:100F18000E000772077202000000000080000772CE
:100F280007720200AA8AAA8A1400487A487A0E0030
:100F38000772077202000000000080000772077243
:100F48000200AA8AAA8A1400487A487A0E00077210
:100F5800077202000000000080000772077202009A
:100F6800AA8AAA8A1400487A487A0E000772077279
:100F78000200000000008000077207720200AA8ABF
:100F8800AA8A1400487A487A0E000772077202008B
:100F9800000000008000077207720200AA8AAA8A6D
:100FA8001400487A487A0E0007720772020000009F
:100FB80000008000077207720200AA8AAA8A140039
:100FC800487A487A0E000772077202000000000093
:100FD8008000077207720200AA8AAA8A1400487A57
:100FE800487A0E00077207720200000000008000B5
:100FF800077207720200AA8AAA8A1400487A487AF5
:101008000E000772077202000000000080000772DD
:1010180007720200AA8AAA8A1400487A487A0E003F
:101028000772077202000000000080000772077252
:101038000200AA8AAA8A1400487A487A0E0007721F
:1010480007720200000000008200077207720200A7
:10105800AA8AAA8A1200487A487A0C00077207728C
:101068000200000000008400077207720200AA8ACA
:10107800AA8A1200487A487A0C000772077202009E
:10108800000000008400077207720200AA8AAA8A78
:101098001200487A487A0C000772077202000000B2
:1010A80000008400077207720200AA8AAA8A120046
:1010B800487A487A0C0007720772020000000000A4
:1010C8008400077207720200AA8AAA8A1200487A64
:1010D800487A0C00077207720200000000001F0027
:1010E8005B425B425600000000000F000772077267
:1010F8000200AA8AAA8A1200487A487A0C00077263
:1011080007720200000000001F005B425B425600AD
:10111800000000000F00077207720200AA8AAA8A5C
:101128001200487A487A0C00077207720200000021
:1011380000001D005B425B420200BA6BBA6B2B00D9
:10114800331933190200BA6BBA6B29005B425B4250
:101158000200000000000D00077207720200AA8A50
:10116800AA8A1200487A487A0C00077207720200AD
:10117800000000001D005B425B420200BA6BBA6BC4
:1011880056005B425B420200000000000D0007723F
:1011980007720200AA8AAA8A1200487A487A0C00C2
:1011A800077207720200000000001B005B425B42EE
:1011B8000200BA6BBA6B2D00331933190200BA6BEF
:1011C800BA6B2B005B425B420200000000000B0080
:1011D800077207720200AA8AAA8A1200487A487A15
:1011E8000C00077207720200000000001B005B423F
:1011F8005B420200BA6BBA6B2D0033193319020037
:10120800BA6BBA6B2B005B425B4202000000000025
:101218000B00077207720200AA8AAA8A1200487A8B
:10122800487A0C00077207720200000000001D00D7
:101238005B425B420200BA6BBA6B56005B425B4290
:101248000200000000000D00077207720200AA8A5F
:10125800AA8A1200487A487A0C00077207720200BC
:10126800000000001D005B425B420200BA6BBA6BD3
:101278002B00331933190200BA6BBA6B29005B4291
:101288005B420200000000000D00077207720200B6
:10129800AA8AAA8A1200487A487A0C00077207724A
:1012A8000200000000001F005B425B425600000085
:1012B80000001100077207721E00000000002100E4
:1012C8005B425B4256000000000011000772077283
:0812D8001E0000000000EA0501
:1012E000CF93DF93CDB7DEB7C255D1090FB6F894CF
:1012F000DEBF0FBECDBF8AB18C608AB982E5E0E067
:10130000F1E0BE016F5F7F4FDB0101900D928A9586
:10131000E1F72FEF85EA9EE0215080409040E1F711
:1013200000C000008BB11BB82FE789EA93E0215081
:1013300080409040E1F700C000002A9A2FE789EA38
:1013400093E0215080409040E1F700C000005A9A9D
:101350002FE789EA93E0215080409040E1F700C0F8
:1013600000005B9A2FE789EA93E02150804090408B
:10137000E1F700C0000080E842E050E00E948B0AE4
:101380002FE789EA93E0215080409040E1F700C0C8
:101390000000BE016B5F7F4F80E84AE050E00E9492
:1013A0008B0A2FE789EA93E0215080409040E1F7D3
:1013B00000C00000BE01675E7F4F80E847E150E05B
:1013C0000E948B0ACE5ADF4F0FB6F894DEBF0FBED5
:0813D000CDBFDF91CF9108951C
:1013D8007F928F929F92AF92BF92CF92DF92EF92BD
:1013E800FF920F931F93CF93DF934C01A12CB12C45
:1013F80077247394C12CC501880F991FF401E80F55
:10140800F91F05911591A5014F5F5F4F2591359102
:101418000217130769F4F401E80FF91F3496E590F1
:10142800F59083E0A80EB11C1E141F0424F010C010
:101438005A01E72CFC2CD12EC0E0D0E08D2D0E9463
:10144800830B802F0E94830B2196CE15DF05B4F302
:101458008CE0A81689E0B80670F2DF91CF911F9151
:101468000F91FF90EF90DF90CF90BF90AF909F903B
:061478008F907F900895A3
:10147E00CF93DF93CDB7DEB72C970FB6F894DEBFC0
:10148E000FBECDBF0E94560B0E94640B0E94450BEF
:10149E000E94EC0A0E94900B0E948A0B0E94700917
:1014AE008CE0E2E5F1E0DE01119601900D928A9555
:1014BE00E1F700EC1AE580E00E94830B80E00E94C9
:1014CE00830B01501109B9F7BE016F5F7F4F80E8A2
:1014DE0046E050E00E948B0A0CE11FE48FEF0E9461
:1014EE00830B8FEF0E94830B01501109B9F788EC23
:1014FE0090E00E94EC09EAE7F0E0A9E7B0E0808115
:08150E0086FFFDCF8C91FBCF9D
:101516006F927F928F92CF92DF92EF924115510593
:1015260011F13B01882E6B01E82E440F551F640E06
:10153600751E811C57FD8A945A9AF6015E2D0E94EB
:101546007B0B872F0E94830BF6018491E7FC808139
:101556000E94830B5A9882E0C80ED11CE11CC61467
:10156600D704E80449F7EF90DF90CF908F907F90F3
:041576006F900895D5
:10157A001F920F920FB60F9211242F933F934F93FE
:10158A005F936F937F938F939F93AF93BF93EF93E1
:10159A00FF9380916801853120F00E942C0B1092F4
:1015AA006801809168018F5F80936801FF91EF91D4
:1015BA00BF91AF919F918F917F916F915F914F9161
:0E15CA003F912F910F900FBE0F901F9018951C
:1015D800559A14BC15BC81E088BD84B5806384BD70
:1015E80084B5836084BD85B5886085BDE0EBF0E097
:1015F8001082808182608083E1EBF0E0108280813C
:10160800876080838081806880838AEF8093B300BD
:0A16180082E080937000789408953A
:101622001F921FB61F9211248F9380916A01882303
:1016320029F010926A0158981092810080916901F4
:10164200882321F010926901109281008F911F90DE
:061652001FBE1F90189559
:1016580085B58B7F85BDE0916B01F0E0E25AFE4FC6
:10166800808187BD85B5846085BD80916B018F5F62
:1016780080936B0180916B018A3010F010926B019E
:021688000895C3
:10168A00209A249810928000E1E8F0E08081886036
:10169A0080831082EFE6F0E0808182608083789414
:0216AA000895A1
:1016AC00789481E680937C00EAE7F0E086EA808318
:0C16BC0010927B00808180648083089580
:1016C8001092C50087E68093C40086E08093C2002C
:0816D80088E18093C100089530
:1016E000EC010E94990B0E94980BCE010E949A0B6C
:0616F000CE010E94960BE2
:1016F60057FD03C0659175910895619171910895A3
:0E1706002A988EBD0DB407FEFDCF2A9A0895D5
:0C17140084B18C6284B980E58CBD08951E
:0817200085B5846085BD0895C4
:041728000C9400001D
:04172C000E946200B5
:0217300008951A
:02173200089518
:02173400089516
:10173600FDFDFDFD00EF04EE041BFEFEFEFE90EF38
:10174600044A3F7F04EE064390EF83090008AF0B7F
:10175600000A00050006000700EF0CEE90EF80007F
:10176600B0EF024900EF017F81E102E276E283E118
:10177600018090EF000008EF051800120013AF1566
:021786008316C8
:0C17880008EF05187E1205150513AA16BF
:0A1794005F005F005F785000000066
:00000001FF
