:100000000C943A000C9420010C9420010C942001D3
:100010000C9420010C9420010C9420010C942001DC
:100020000C9420010C9420010C9420010C942001CC
:100030000C9420010C9420010C9464000C94200179
:100040000C9420010C9420010C9420010C942001AC
:100050000C9420010C9420010C9420010C9420019C
:100060000C9420010C9420010100010A00024E01B1
:100070000A010C8011241FBECFEFD8E0DEBFCDBF38
:10008000E8E6F0E040E017C0B591A59135912591E3
:10009000059107FD0CC095918591EF01F92FE82F8F
:1000A00005900D92A217B307D9F7FE0104C01D9267
:1000B000A217B307E1F7E437F40731F70E94D7003E
:0800C0000C940701F894FFCF36
:1000C8001F920F920FB60F9211242F933F934F93C5
:1000D8005F936F937F938F939F93AF93BF93EF93A8
:1000E800FF9380910A01853120F00E94B800109298
:1000F8000A0180910A018F5F80930A01FF91EF91B5
:10010800BF91AF919F918F917F916F915F914F9127
:0E0118003F912F910F900FBE0F901F901895E2
:10012600539AE0EBF0E01082A1EBB0E01C9288E776
:100136008093B40080818063808380818360808324
:100146008C9188608C9314BC84B5826084BD15BC88
:1001560085B5856085BD85B5806885BD8AEF87BD17
:0A01660082E080936E007894089503
:10017000E1EBF0E080818B7F808380818E7F8083C4
:10018000A0910B01B0E0A050BF4F8C918093B300C1
:1001900080818560808380910B018F5F80930B014C
:0E01A00080910B018A3010F010920B0108952F
:1001AE000E94ED000E94FB000E9493000E941A0123
:1001BE00CAE7D0E009E710E0888186FFFDCFF8019D
:0C01CE0080810E941201F8018081F6CFB0
:1001DA00789481E680937C00EAE7F0E086EA8083FF
:0C01EA0010927B00808180648083089567
:1001F6001092C50087E68093C40086E08093C20013
:0802060088E18093C100089516
:10020E00EC010E9425010E942401CE010E942601CC
:06021E00CE010E94220146
:10022400E0ECF0E0908195FFFDCF8093C600089547
:0C023400E1EBF0E080818560808308959C
:040240000C9400001A
:040244000E946200B2
:02024800089517
:02024A00089515
:02024C00089513
:0A024E00BE00BE00BEEF9F000000DE
:00000001FF
