:100000000C9437000C94A4000C94A4000C94A4004D
:100010000C94A4000C94A4000C94A4000C94A400D0
:100020000C94A4000C94A4000C94A4000C94A400C0
:100030000C94A4000C94A4000C94A4000C94A400B0
:100040000C94A4000C94A4000C94A4000C94A400A0
:100050000C94A4000C94A4000C94A4000C94A40090
:100060000C94A4000C94A40001000104800011244D
:100070001FBECFEFD8E0DEBFCDBFE8E6F0E040E046
:1000800017C0B591A59135912591059107FD0CC03B
:1000900095918591EF01F92FE82F05900D92A21708
:1000A000B307D9F7FE0104C01D92A217B307E1F709
:1000B000ED36F40731F70E9461000C949100F8943A
:0200C000FFCF70
:1000C2000E94850081E490E00E949C0080910001E2
:1000D200909101010E949C00809102019091030184
:1000E2000E949C0085E490E00E949C008AE090E0DF
:1000F2000E949C002FEF83ED90E3215080409040BE
:08010200E1F700C00000DECFB0
:10010A001092C50087E68093C40086E08093C200FF
:08011A0088E18093C100089503
:10012200EC010E94A9000E94A800CE010E94AA0030
:06013200CE010E94A600B0
:10013800E0ECF0E0908195FFFDCF8093C600089534
:040148000C94000013
:04014C000E945F00AE
:02015000089510
:0201520008950E
:0201540008950C
:00000001FF
